:020000040800F2
:1000000000500020E91700080D170008131700081A
:10001000191700081F170008251700080000000026
:100020000000000000000000000000002B17000886
:100030003717000800000000431700084F1700089A
:10004000311800083118000831180008311800086C
:10005000311800083118000831180008311800085C
:10006000311800083118000831180008311800084C
:10007000311800083118000831180008311800083C
:10008000311800083118000831180008311800082C
:10009000311800083118000831180008311800081C
:1000A000311800085D1700083118000831180008E1
:1000B00031180008311800083118000831180008FC
:1000C00031180008311800083118000831180008EC
:1000D00031180008311800083118000831180008DC
:1000E000311800083118000831180008000000001D
:1000F0000000000000000000000000000000000000
:0C01000000000000000000005FF808F1A3
:1001100010B5054C237833B9044B13B10448AFF341
:1001200000800123237010BD5C000020000000004F
:100130002443000808B5034B1BB103490348AFF340
:10014000008008BD0000000060000020244300087B
:10015000034613F8012B002AFBD1181A0138704707
:1001600070B54FF0FF0C4CF4E06C1CEA11541DBF4D
:100170001CEA135594EA0C0F95EA0C0F00F0DEF818
:100180002C4481EA030621EA4C5123EA4C5350EAFD
:10019000013518BF52EA033541F4801143F480134E
:1001A00038D0A0FB02CE4FF00005E1FB02E506F0DF
:1001B0000042E0FB03E54FF00006E1FB03569CF034
:1001C000000F18BF4EF0010EA4F1FF04B6F5007F3A
:1001D00064F5407404D25FEA4E0E6D4146EB0606AC
:1001E00042EAC62141EA55514FEAC52040EA5E5035
:1001F0004FEACE2EB4F1FD0C88BFBCF5E06F1ED8DF
:10020000BEF1004F08BF5FEA500E50F1000041EB15
:10021000045170BD06F0004646EA010140EA0200C2
:1002200081EA0301B4EB5C04C2BFD4EB0C0541EAE4
:10023000045170BD41F480114FF0000E013C00F3F9
:10024000AB8014F1360FDEBF002001F0004170BD1D
:10025000C4F10004203C35DA0C341BDC04F1140436
:10026000C4F1200500FA05F320FA04F001FA05F2C2
:1002700040EA020001F0004221F0004110EBD3708F
:1002800021FA04F642EB06015EEA430E08BF20EABB
:10029000D37070BDC4F10C04C4F1200500FA04F35E
:1002A00020FA05F001FA04F240EA020001F00041F0
:1002B00010EBD37041F100015EEA430E08BF20EA63
:1002C000D37070BDC4F1200500FA05F24EEA020EAB
:1002D00020FA04F301FA05F243EA020321FA04F0DA
:1002E00001F0004121FA04F220EA020000EBD37091
:1002F0005EEA430E08BF20EAD37070BD94F0000F91
:100300000FD101F00046400041EB010111F4801FC4
:1003100008BF013CF7D041EA060195F0000F18BF75
:10032000704703F00046520043EB030313F4801FB1
:1003300008BF013DF7D043EA0603704794EA0C0F6B
:100340000CEA135518BF95EA0C0F0CD050EA410681
:1003500018BF52EA4306D1D181EA030101F00041FE
:100360004FF0000070BD50EA410606BF1046194626
:1003700052EA430619D094EA0C0F02D150EA013632
:1003800013D195EA0C0F05D152EA03361CBF104673
:1003900019460AD181EA030101F0004141F0FE4112
:1003A00041F470014FF0000070BD41F0FE4141F496
:1003B000780170BD4FF0FF0C1CEAD0521EBF1CEA42
:1003C000D15392EA0C0F93EA0C0F6FD01A4480EAD3
:1003D000010C400218BF5FEA41211ED04FF00063BC
:1003E00043EA501043EA5111A0FB01310CF00040E8
:1003F000B1F5000F3EBF490041EAD3715B0040EA0E
:10040000010062F17F02FD2A1DD8B3F1004F40EBDD
:10041000C25008BF20F00100704790F0000F0CF0B0
:10042000004C08BF49024CEA502040EA51207F3A74
:10043000C2BFD2F1FF0340EAC250704740F400004F
:100440004FF00003013A5DDC12F1190FDCBF00F040
:1004500000407047C2F10002410021FA02F1C2F1EE
:10046000200200FA02FC5FEA310040F1000053EA8A
:100470004C0308BF20EADC70704792F0000F00F0D8
:10048000004C02BF400010F4000F013AF9D040EADE
:100490000C0093F0000F01F0004C02BF490011F472
:1004A000000F013BF9D041EA0C018FE70CEAD15370
:1004B00092EA0C0F18BF93EA0C0F0AD030F0004CF0
:1004C00018BF31F0004CD8D180EA010000F00040A4
:1004D000704790F0000F17BF90F0004F084691F062
:1004E000000F91F0004F14D092EA0C0F01D142029C
:1004F0000FD193EA0C0F03D14B0218BF084608D165
:1005000080EA010000F0004040F0FE4040F40000AE
:10051000704740F0FE4040F44000704781F00041D9
:1005200002E000BF83F0004330B54FEA41044FEAD8
:10053000430594EA050F08BF90EA020F1FBF54EA73
:10054000000C55EA020C7FEA645C7FEA655C00F00F
:10055000E2804FEA5454D4EB5555B8BF6D420CDDE0
:100560002C4480EA020281EA030382EA000083EA63
:10057000010180EA020281EA0303362D88BF30BD03
:1005800011F0004F4FEA01314FF4801C4CEA113159
:1005900002D0404261EB410113F0004F4FEA0333B8
:1005A0004CEA133302D0524263EB430394EA050F43
:1005B00000F0A780A4F10104D5F1200E0DDB02FAB2
:1005C0000EFC22FA05F2801841F1000103FA0EF246
:1005D000801843FA05F359410EE0A5F120050EF10C
:1005E000200E012A03FA0EFC28BF4CF0020C43FA3D
:1005F00005F3C01851EBE37101F0004507D54FF04A
:10060000000EDCF1000C7EEB00006EEB0101B1F599
:10061000801F1BD3B1F5001F0CD349085FEA3000DF
:100620004FEA3C0C04F101044FEA445212F5800FEA
:1006300080F09A80BCF1004F08BF5FEA500C50F187
:10064000000041EB045141EA050130BD5FEA4C0C6A
:10065000404141EB0101013C28BFB1F5801FE9D2C7
:1006600091F0000F04BF01460020B1FA81F308BFEA
:100670002033A3F10B03B3F120020CDA0C3208DDB6
:1006800002F1140CC2F10C0201FA0CF021FA02F191
:100690000CE002F11402D8BFC2F1200C01FA02F101
:1006A00020FA0CFCDCBF41EA0C019040E41AA2BF26
:1006B00001EB0451294330BD6FEA04041F3C1CDAEE
:1006C0000C340EDC04F11404C4F1200220FA04F00E
:1006D00001FA02F340EA030021FA04F345EA0301B8
:1006E00030BDC4F10C04C4F1200220FA02F001FA7A
:1006F00004F340EA0300294630BD21FA04F02946FC
:1007000030BD94F0000F83F4801306BF81F4801194
:100710000134013D4EE77FEA645C18BF7FEA655C07
:1007200029D094EA050F08BF90EA020F05D054EAD9
:10073000000C04BF1946104630BD91EA030F1EBFDE
:100740000021002030BD5FEA545C05D140004941E2
:1007500028BF41F0004130BD14F580043CBF01F5D5
:10076000801130BD01F0004545F0FE4141F47001BB
:100770004FF0000030BD7FEA645C1ABF1946104696
:100780007FEA655C1CBF0B46024650EA013406BF97
:1007900052EA033591EA030F41F4002130BD00BF56
:1007A00090F0000F04BF0021704730B54FF4806413
:1007B00004F132044FF000054FF0000150E700BF94
:1007C00090F0000F04BF0021704730B54FF48064F3
:1007D00004F1320410F0004548BF40424FF00001E0
:1007E0003EE700BF42004FEAE2014FEA31014FEA23
:1007F00002701FBF12F07F4393F07F4F81F0605172
:10080000704732F07F4208BF704793F07F4F04BFBC
:1008100041F40021704730B54FF4607401F0004599
:1008200021F000411CE700BF50EA010208BF7047F9
:1008300030B54FF000050AE050EA010208BF7047EA
:1008400030B511F0004502D5404261EB41014FF453
:10085000806404F132045FEA915C3FF4D8AE4FF05B
:1008600003025FEADC0C18BF03325FEADC0C18BF3E
:10087000033202EBDC02C2F1200300FA03FC20FA8F
:1008800002F001FA03FE40EA0E0021FA02F11444DC
:10089000BDE600BF4FEA410212F5001215D211D594
:1008A0006FF47873B3EB625212D94FEAC12343F06D
:1008B000004343EA505311F0004F23FA02F018BFEF
:1008C000404270474FF00000704750EA013005D1B8
:1008D00011F0004008BF6FF0004070474FF000007B
:1008E000704700BF4FEA4102B2F1E04324BFB3F5C5
:1008F000001CDCF1FE5C0DD901F0004C4FEAC00297
:100900004CEA5070B2F1004F40EB830008BF20F07A
:100910000100704711F0804F21D113F13872BCBF34
:1009200001F00040704741F480114FEA5252C2F189
:100930001802C2F1200C10FA0CF320FA02F018BFD2
:1009400040F001004FEAC1234FEAD32303FA0CFC25
:1009500040EA0C0023FA02F34FEA4303CCE77FEAB4
:10096000625307D150EA01331EBF4FF0FE4040F4FE
:100970004000704701F0004040F0FE4040F40000AD
:10098000704700BF80F0004002E000BF81F00041EE
:1009900042001FBF5FEA410392EA030F7FEA226C25
:1009A0007FEA236C6AD04FEA1262D2EB1363C1BFB5
:1009B000D218414048404140B8BF5B42192B88BF24
:1009C000704710F0004F40F4000020F07F4018BF47
:1009D000404211F0004F41F4000121F07F4118BF67
:1009E000494292EA030F3FD0A2F1010241FA03FC0F
:1009F00010EB0C00C3F1200301FA03F100F00043F7
:100A000002D5494260EB4000B0F5000F13D3B0F1BE
:100A1000807F06D340084FEA310102F10102FE2A2D
:100A200051D2B1F1004F40EBC25008BF20F001009D
:100A300040EA03007047490040EB0000013A28BF3C
:100A4000B0F5000FEDD2B0FA80FCACF1080CB2EBBF
:100A50000C0200FA0CF0AABF00EBC250524218433D
:100A6000BCBFD0401843704792F0000F81F40001E2
:100A700006BF80F400000132013BB5E74FEA4103B5
:100A80007FEA226C18BF7FEA236C21D092EA030F21
:100A900004D092F0000F08BF0846704790EA010F9B
:100AA0001CBF0020704712F07F4F04D1400028BFC8
:100AB00040F00040704712F100723CBF00F50000AA
:100AC000704700F0004343F0FE4040F400007047E0
:100AD0007FEA226216BF08467FEA2363014642028C
:100AE00006BF5FEA412390EA010F40F4800070479F
:100AF0004FF0000304E000BF10F0004348BF404245
:100B00005FEA000C08BF704743F0964301464FF080
:100B100000001CE050EA010208BF70474FF00003DC
:100B20000AE000BF50EA010208BF704711F000431D
:100B300002D5404261EB41015FEA010C02BF8446ED
:100B40000146002043F0B64308BFA3F18053A3F54C
:100B50000003BCFA8CF2083AA3EBC25310DB01FA93
:100B600002FC634400FA02FCC2F12002BCF1004F17
:100B700020FA02F243EB020008BF20F001007047A8
:100B800002F1200201FA02FCC2F1200250EA4C00FC
:100B900021FA02F243EB020008BF20EADC70704742
:100BA0004FEA4002B2F1FE4F0FD34FF09E03B3EB7A
:100BB00012620DD94FEA002343F0004310F0004FBA
:100BC00023FA02F018BF404270474FF00000704710
:100BD00012F1610F01D1420205D110F0004008BFAF
:100BE0006FF0004070474FF00000704780B582B052
:100BF00000AF0346FB710F4B00221A600BE00D4B58
:100C00001B6801330B4A13600A4B1B68322B02D955
:100C1000084B1B680AE02021074801F049FC034605
:100C20001A46FB799A42EAD0024B1B6818460837ED
:100C3000BD4680BD380100200008014090B58DB050
:100C400000AF7860396007F1080300221A605A602B
:100C50009A60DA6001233B610023FB602023BB60C4
:100C600002237B6107F108031946724801F09CFAE0
:100C7000012000F041FE00233B610123FB602023A3
:100C8000BB6002237B6107F108031946694801F044
:100C90008BFA00222021674801F021FC142000F08B
:100CA0002BFE01233B610023FB602023BB6002235A
:100CB0007B6107F1080319465E4801F075FA0023CD
:100CC000FB6203E000BFFB6A0133FB62FB6A9F2B00
:100CD000F8DD00BF2021574801F0EAFB0346002B56
:100CE000F8D000BF2021534801F0E2FB0346012B5E
:100CF000F8D00023BB6227E00020FFF777FF024611
:100D00004D49BB6A41F82320BB6A5C1C0120FFF7F8
:100D10006DFF0346484A42F82430BB6A9B007A685C
:100D200013444549BA6A51F822201A60BB6A5A1C1A
:100D3000BB6A01339B0079680B443F4951F822207C
:100D40001A60BB6A0233BB62BB6A632BD4DD3B68AB
:100D5000013300221A703B68023300221A703B688C
:100D6000033300221A703B68043300221A700023F8
:100D70007B623DE07B6ADB007A6813441B68FB61A1
:100D80007B6ADB0004337A6813441B68BB61FB6930
:100D9000312B02D8BB69312B04D94FF400512748BD
:100DA00001F0B5FB7B6A002B00DA0733DB10194634
:100DB0000A463B6813441A783B680B445200D2B28F
:100DC0001A70BA69FB699A420FD97B6A002B00DA64
:100DD0000733DB1019460A463B6813441A783B6810
:100DE0000B4442F00102D2B21A707B6A01337B627B
:100DF0007B6A272BBEDD3B681A783B6801331B7882
:100E00001344DAB23B6802331B781344DAB23B680E
:100E100003331B78134487F823303B6804331B7873
:100E200097F823209A4200D0FEE700BF3437BD4632
:100E300090BD00BF000801403C01002000100140AF
:100E400080B592B000AFC7E902017A603B60D7E994
:100E50000201FFF71FFD03467B64786CFFF7B0FCCF
:100E600002460B46D7E90201FFF75CFB02460B4640
:100E700010461946FFF736FD03463B647B6C002B9A
:100E800001DD012300E00223FB63FB6BBB627B6C93
:100E9000BB630AE0FB6B0133FB63BB6B594A82FB0C
:100EA00003129210DB17D31ABB63BB6B002BF1D17B
:100EB000FB6B7B6300233B6386E07A6BBB6A9A42E1
:100EC0001AD17A6C4F4B83FB02139910D317C91AAE
:100ED0000B469B000B445B00D11ACAB2FB6B991EF8
:100EE0003B6BCB1A3032D2B248333B4403F8342C3C
:100EF0007B6B013B7B6325E07A6BBB6A9A4221DD09
:100F00007A6C404B83FB02139910D317C91A0B4616
:100F10009B000B445B00D11ACAB2FB6B991E3B6B62
:100F2000CB1A3032D2B248333B4403F8342C7B6CBA
:100F3000344A82FB03129210DB17D31A7B647B6B5B
:100F4000013B7B63FB6B013B3A6B9A4210D107F18B
:100F500014023B6B13442E221A70BB6A022B0CBF87
:100F600001230023DBB21A467B6B9B1A7B6328E0CC
:100F70007B6B002B25D12449386CFFF71BFA034605
:100F80001846FFF70DFE0346DBB23033D9B207F146
:100F900014023B6B13440A461A701B49386CFFF766
:100FA00009FA03463B64386CFFF7FAFD034618461E
:100FB000FFF7A2FD03461946386CFFF7E7FC03462E
:100FC0003B643B6B01333B633A6B7B689A42FFF6B1
:100FD00074AF0023FB620BE0FB6A3A68134407F12D
:100FE0001401FA6A0A4412781A70FB6A0133FB6230
:100FF000FA6A7B689A42EFDD00BF00BF4837BD4602
:1010000080BD00BF676666660000204100000000EA
:10101000B0B5ADF5B96D00AF894B07F5B4640FCB32
:1010200084E80F000023C7F8B03507F5B963A3F5CE
:1010300099628449134603C9186004331970531D1B
:1010400000221A605A609A60C3F80B200023C7F888
:10105000BC3500F0EFFB00F001F900F011FA00F0F0
:10106000E5F900F093F900F053F9774800F040FDFE
:10107000322000F041FC07F5B4631846FFF768F82A
:1010800003469AB207F5B4610A23704802F018FBD0
:1010900041F2883000F030FC6D496E48FFF7CEFD1C
:1010A0006B4B9B781846FFF78BFB04460D46684B4D
:1010B000DB781846FFF784FB5FA3D3E90023FFF733
:1010C0004FF802460B4620462946FFF72DFA024606
:1010D0000B4610461946FFF705FC0346C7F8B8351E
:1010E0005B4B1B781846FFF76BFB04460D46584BCD
:1010F0005B781846FFF764FB4FA3D3E90023FFF7A3
:101100002FF802460B4620462946FFF70DFA024605
:101110000B4610461946FFF7E5FB0346C7F8B43502
:10112000D7F8B405FFF75EFB3B1D0322FFF788FEEF
:101130003B1D1846FFF70CF803469AB2391D0A23E7
:10114000424802F0BDFAD7F8B805FFF74BFB07F1AC
:1011500068030322FFF774FE4FF47A7000F0CCFBB3
:1011600007F168031846FEF7F3FF03469AB207F14A
:1011700068010A23354802F0A3FA0023C7F8C435F2
:1011800016E007F5B963A3F2C452D7F8C435134487
:1011900000221A7007F5B963A3F5AC62D7F8C4351D
:1011A000134400221A70D7F8C4350133C7F8C43588
:1011B000D7F8C435632BE4DD4FF47A7000F09CFB64
:1011C000214800F043FDC7F8BC0507F1CC03D7F870
:1011D000BC252149184602F0F3FB07F1CC03184661
:1011E000FEF7B6FF03469AB207F1CC010A2317486F
:1011F00002F066FA0023C7F8C0350BE007F5B462C9
:10120000D7F8C035134400221A70D7F8C03501331F
:10121000C7F8C03507F5B4631846FEF799FF0246D4
:10122000D7F8C0359A42E9D84FF47A7000F064FBE1
:101230001BE700BFAFF300809A9999999999B93F3C
:10124000404300085443000878000020F0000020CC
:101250005C040020CC0200203C43000880B594B020
:1012600000AF07F1280328220021184602F0C8FB2E
:1012700007F1140300221A605A609A60DA601A615A
:101280003B1D00221A605A609A60DA600123BB623B
:101290004FF48033FB6200233B630123BB630223D3
:1012A0007B644FF48033BB644FF40023FB6407F18D
:1012B0002803184601F044F90346002B01D000F042
:1012C0004FF90F237B610223BB610023FB610023E5
:1012D0003B6200237B6207F114030121184601F0F1
:1012E000B1FB0346002B01D000F03AF902237B60EA
:1012F0004FF48043FB603B1D184601F031FD03466F
:10130000002B01D000F02CF900BF5037BD4680BD46
:1013100080B584B000AF3B1D00221A605A609A600D
:10132000184B194A1A60174B00229A60154B00227D
:101330001A73144B00221A75124B4FF46022DA61B3
:10134000104B00225A600F4B01221A610D4800F029
:10135000F7FA0346002B01D000F002F906237B6068
:101360000123BB600023FB603B1D1946054800F0CC
:1013700079FC0346002B01D000F0F2F800BF1037D3
:10138000BD4680BD780000200024014080B586B0B5
:1013900000AF07F1080300221A605A609A60DA6011
:1013A0003B4600221A605A601E4B1F4A1A601D4BB2
:1013B0001F225A601B4B00229A601A4B4FF6E852CC
:1013C000DA60184B00221A61164B00225A61154B45
:1013D00080229A61134801F079FD0346002B01D069
:1013E00000F0BEF84FF48053BB6007F108031946C4
:1013F0000C4801F0C2FE0346002B01D000F0B0F80B
:1014000000233B6000237B603B461946054802F001
:1014100097F80346002B01D000F0A2F800BF183760
:10142000BD4680BDA8000020002C014080B500AF63
:10143000114B124A1A60104B4FF4E1325A600E4BB6
:1014400000229A600C4B0022DA600B4B00221A61DA
:10145000094B0C225A61084B00229A61064B00226C
:10146000DA61054802F0DCF80346002B01D000F0F9
:1014700077F800BF80BD00BFF000002000380140B9
:1014800080B588B000AF07F1100300221A605A60DF
:101490009A60DA60274B9B69264A43F010039361F8
:1014A000244B9B6903F01003FB60FB68214B9B6995
:1014B000204A43F0200393611E4B9B6903F02003F5
:1014C000BB60BB681B4B9B691A4A43F004039361E2
:1014D000184B9B6903F004037B607B6800224FF488
:1014E0000051154800F0FBFF00222021134800F0B6
:1014F000F6FF4FF400533B6101237B610023BB6186
:101500000223FB6107F1100319460B4800F04CFE63
:1015100020233B6101237B610023BB610223FB612C
:1015200007F110031946054800F03EFE00BF2037C2
:10153000BD4680BD0010024000100140000801407F
:1015400080B582B000AF78604FF40051034800F0DE
:10155000DEFF00BF0837BD4680BD00BF0010014060
:1015600080B400AF72B600BFFEE7000080B483B065
:1015700000AF0E4B9B690D4A43F0010393610B4B87
:101580009B6903F001037B607B68084BDB69074ABA
:1015900043F08053D361054BDB6903F080533B601C
:1015A0003B6800BF0C37BD4680BC7047001002404E
:1015B00080B588B000AF786007F1100300221A6090
:1015C0005A609A60DA607B681B68144A934221D1A2
:1015D000134B9B69124A43F400739361104B9B6950
:1015E00003F40073FB60FB680D4B9B690C4A43F0EE
:1015F000040393610A4B9B6903F00403BB60BB685F
:1016000040233B6103237B6107F110031946054822
:1016100000F0CAFD00BF2037BD4680BD0024014058
:10162000001002400008014080B584B000AF78602F
:101630007B681B680D4A934213D10D4B9B690C4A82
:1016400043F4006393610A4B9B6903F40063FB60FE
:10165000FB6800220021192000F06FFD192000F026
:1016600088FD00BF1037BD4680BD00BF002C014083
:101670000010024080B588B000AF786007F1100319
:1016800000221A605A609A60DA607B681B681C4A04
:10169000934231D11B4B9B691A4A43F480439361B7
:1016A000184B9B6903F48043FB60FB68154B9B69F7
:1016B000144A43F004039361124B9B6903F0040343
:1016C000BB60BB684FF400733B6102237B61032363
:1016D000FB6107F1100319460B4800F065FD4FF45C
:1016E00080633B6100237B610023BB6107F1100332
:1016F0001946054800F058FD00BF2037BD4680BDA3
:1017000000380140001002400008014080B400AFE2
:10171000FEE780B400AFFEE780B400AFFEE780B420
:1017200000AFFEE780B400AFFEE780B400AF00BFBB
:10173000BD4680BC704780B400AF00BFBD4680BCD2
:10174000704780B400AF00BFBD4680BC704780B515
:1017500000AF00F0B5F800BF80BD000080B500AF5D
:10176000024801F002FC00BF80BD00BFA8000020BD
:1017700080B586B000AF7860144A154BD31A7B61F0
:101780007B693B61134B1B68002B02D1114B124A42
:101790001A60104B1A687B6813443A699A4207D260
:1017A00002F036F903460C221A604FF0FF3309E0CD
:1017B000084B1B68FB60074B1A687B681344054A9B
:1017C0001360FB6818461837BD4680BD00500020E6
:1017D0000004000060040020B005002080B400AFC9
:1017E00000BFBD4680BC7047FFF7F8FF0B480C49AF
:1017F0000C4A002302E0D458C4500433C4188C426D
:10180000F9D3094A094C002301E013600432A242D3
:10181000FBD302F003F9FFF7FBFB70470000002049
:101820005C000020D04300085C000020B0050020D0
:10183000FEE7000080B500AF084B1B68074A43F085
:1018400010031360032000F06DFC0F2000F008F877
:10185000FFF78CFE0023184680BD00BF0020024029
:1018600080B582B000AF7860124B1A68124B1B78BB
:1018700019464FF47A73B3FBF1F3B2FBF3F3184656
:1018800000F085FC0346002B01D001230EE07B68AD
:101890000F2B0AD8002279684FF0FF3000F04DFC82
:1018A000064A7B681360002300E0012318460837CE
:1018B000BD4680BD0000002008000020040000207C
:1018C00080B400AF054B1B781A46054B1B681344C8
:1018D000034A136000BFBD4680BC7047080000206B
:1018E0006404002080B400AF024B1B681846BD465C
:1018F00080BC70476404002080B584B000AF78607D
:10190000FFF7F0FFB8607B68FB60FB68B3F1FF3F57
:1019100005D00A4B1B781A46FB681344FB6000BFD6
:10192000FFF7E0FF0246BB68D31AFA689A42F7D87D
:1019300000BF00BF1037BD4680BD00BF08000020BB
:1019400080B586B000AF78600023FB7500233B6153
:101950000023BB600023FB607B68002B01D10123C7
:10196000BEE07B689B68002B7B689B6A002B09D1DB
:101970007B680022DA627B68002283F82420786882
:10198000FFF716FE786800F0BFFA0346FB757B6828
:101990009B6A03F01003002B40F09980FB7D002B25
:1019A00040F095807B689B6A23F4885323F0020300
:1019B00043F002027B689A627B685A687B68DB6945
:1019C0001A437B681B7B5B001343BA681343BB60FD
:1019D0007B689B68B3F5807F03D07B689B68012B95
:1019E00002D14FF4807300E000233A6913433B6156
:1019F0007B681B7D012B19D17B681B7B002B09D1D8
:101A00007B689B69013B5A033B69134343F40063C2
:101A10003B610BE07B689B6A43F020027B689A6223
:101A20007B68DB6A43F001027B68DA627B681B68D3
:101A30005B6823F469417B681B683A690A435A6012
:101A40007B681B689A68284B13407A681268B968EB
:101A50000B4393607B689B68B3F5807F03D07B6802
:101A60009B68012B04D17B681B69013B1B05FB6054
:101A70007B681B68DB6A23F470017B681B68FA686B
:101A80000A43DA627B681B689A68184B1340BA688D
:101A90009A420BD17B680022DA627B689B6A23F052
:101AA000030343F001027B689A6218E07B689B6A3B
:101AB00023F0120343F010027B689A627B68DB6AB2
:101AC00043F001027B68DA620123FB7507E07B6863
:101AD0009B6A43F010027B689A620123FB75FB7DD1
:101AE00018461837BD4680BDFDF7E1FFFE0E1FFF0B
:101AF00080B584B000AF78600023FB737B6893F8F7
:101B00002430012B01D1022398E07B68012283F865
:101B10002420786800F09EF90346FB73FB7B002BC2
:101B200040F087807B689B6A23F4407323F00103B5
:101B300043F480727B689A627B681B68414A9342D7
:101B400005D1414B5B6803F47023002B15D17B68F2
:101B50009B6A23F480127B689A627B681B685B68CF
:101B600003F48063002B26D07B689B6A23F44053E8
:101B700043F480527B689A621DE07B689B6A43F461
:101B800080127B689A627B681B682F4A934204D05C
:101B90007B681B682B4A93420DD12B4B5B6803F487
:101BA0008063002B07D07B689B6A23F4405343F487
:101BB00080527B689A627B689B6A03F48053002B97
:101BC00006D07B68DB6A23F006027B68DA6202E0FB
:101BD0007B680022DA627B68002283F824207B681D
:101BE0001B686FF002021A607B681B689B6803F435
:101BF0006023B3F5602F13D17B681B68114A9342B1
:101C000005D1114B5B6803F47023002B08D17B686E
:101C10001B689A687B681B6842F4A0029A600CE01B
:101C20007B681B689A687B681B6842F480129A6024
:101C300003E07B68002283F82420FB7B18461037E2
:101C4000BD4680BD002801400024014080B483B01F
:101C500000AF78607B681B68DB6C18460C37BD46AC
:101C600080BC704780B485B000AF786039600023D5
:101C7000FB730023BB607B6893F82430012B01D1F8
:101C80000223DCE07B68012283F824203B685B6848
:101C9000062B1CD87B681B68596B3B685A68134637
:101CA0009B001344053B1F2202FA03F3DB43194058
:101CB0003B6818683B685A6813469B001344053B11
:101CC00000FA03F27B681B680A435A633CE03B68F6
:101CD0005B680C2B1CD87B681B68196B3B685A68C7
:101CE00013469B001344233B1F2202FA03F3DB43FA
:101CF00019403B6818683B685A6813469B001344B8
:101D0000233B00FA03F27B681B680A431A631BE05B
:101D10007B681B68D96A3B685A6813469B0013446A
:101D2000413B1F2202FA03F3DB4319403B6818686A
:101D30003B685A6813469B001344413B00FA03F288
:101D40007B681B680A43DA623B681B68092B1CD955
:101D50007B681B68D9683B681A6813465B001344AC
:101D60001E3B072202FA03F3DB4319403B689868E5
:101D70003B681A6813465B0013441E3B00FA03F2EB
:101D80007B681B680A43DA6019E07B681B68196985
:101D90003B681A6813465B001344072202FA03F3F8
:101DA000DB4319403B6898683B681A6813465B0040
:101DB000134400FA03F27B681B680A431A613B680C
:101DC0001B68102B03D03B681B68112B32D17B683A
:101DD0001B681D4A934225D17B681B689B6803F4EE
:101DE0000003002B26D17B681B689A687B681B6800
:101DF00042F400029A603B681B68102B1AD1134B07
:101E00001B68134AA2FB03239A0C13469B0013443E
:101E10005B00BB6002E0BB68013BBB60BB68002BA2
:101E2000F9D107E07B689B6A43F020027B689A62E5
:101E30000123FB737B68002283F82420FB7B184678
:101E40001437BD4680BC70470024014000000020CC
:101E500083DE1B4380B584B000AF78600023FB6055
:101E60000023BB607B681B689B6803F00103012BA8
:101E700040D07B681B689A687B681B6842F001024F
:101E80009A601F4B1B681F4AA2FB03239B0CBB607D
:101E900002E0BB68013BBB60BB68002BF9D1FFF7D8
:101EA00021FDF8601FE0FFF71DFD0246FB68D31A15
:101EB000022B18D97B681B689B6803F00103012B78
:101EC00011D07B689B6A43F010027B689A627B6842
:101ED000DB6A43F001027B68DA627B68002283F8E8
:101EE0002420012307E07B681B689B6803F0010343
:101EF000012BD8D1002318461037BD4680BD00BF46
:101F00000000002083DE1B4380B584B000AF786002
:101F10000023FB607B681B689B6803F00103012BB7
:101F20002ED17B681B689A687B681B6822F00102CF
:101F30009A60FFF7D7FCF8601BE0FFF7D3FC02467E
:101F4000FB68D31A022B14D97B681B689B6803F0CB
:101F50000103012B0DD17B689B6A43F010027B6863
:101F60009A627B68DB6A43F001027B68DA620123D4
:101F700007E07B681B689B6803F00103012BDCD042
:101F8000002318461037BD4680BD000080B485B0E0
:101F900000AF78607B6803F00703FB600C4BDB68E5
:101FA000BB60BA684FF6FF031340BB60FB681A02C0
:101FB000BB68134343F0BF6343F40033BB60044A80
:101FC000BB68D36000BF1437BD4680BC704700BFFC
:101FD00000ED00E080B400AF044BDB681B0A03F0A7
:101FE00007031846BD4680BC704700BF00ED00E007
:101FF00080B483B000AF0346FB7197F90730002B24
:102000000BDBFB7903F01F02064997F907305B09E8
:10201000012000FA02F241F8232000BF0C37BD4630
:1020200080BC704700E100E080B483B000AF03469D
:102030003960FB7197F90730002B0ADB3B68DAB295
:102040000C4997F907301201D2B20B4483F80023F0
:102050000AE03B68DAB20849FB7903F00F03043B5E
:102060001201D2B20B441A7600BF0C37BD4680BCB9
:10207000704700BF00E100E000ED00E080B489B0EF
:1020800000AFF860B9607A60FB6803F00703FB619A
:10209000FB69C3F10703042B28BF0423BB61FB6961
:1020A0000433062B02D9FB69033B00E000237B616C
:1020B0004FF0FF32BB6902FA03F3DA43BB681A4000
:1020C0007B699A404FF0FF317B6901FA03F3D943F2
:1020D0007B680B40134318462437BD4680BC7047CD
:1020E00080B582B000AF78607B68013BB3F1807F40
:1020F00001D301230FE00A4A7B68013B53600F21A3
:102100004FF0FF30FFF790FF054B00229A60044B21
:1021100007221A60002318460837BD4680BD00BF5D
:1021200010E000E080B582B000AF78607868FFF71B
:102130002DFF00BF0837BD4680BD80B586B000AF1B
:102140000346B9607A60FB7300237B61FFF742FFAF
:1021500078617A68B9687869FFF790FF024697F965
:102160000F3011461846FFF75FFF00BF1837BD4616
:1021700080BD80B582B000AF0346FB7197F9073090
:102180001846FFF735FF00BF0837BD4680BD80B554
:1021900082B000AF78607868FFF7A2FF0346184668
:1021A0000837BD4680BD000080B48BB000AF7860BA
:1021B000396000237B6200233B6269E101227B6A74
:1021C00002FA03F3FB613B681B68FA691340BB61C9
:1021D000BA69FB699A4240F058813B685B689A4A49
:1021E00093425ED0984A934275D8984A934258D009
:1021F000964A93426FD8964A934252D0944A934259
:1022000069D8944A93424CD0924A934263D8924AF6
:10221000934246D0904A93425DD8122B2AD8122B73
:1022200059D801A252F823F0A32200087D22000809
:102230008F220008D1220008D7220008D7220008E8
:10224000D7220008D7220008D7220008D72200088A
:10225000D7220008D7220008D7220008D72200087A
:10226000D7220008D7220008D722000885220008BC
:1022700099220008794A934213D02CE03B68DB682E
:102280003B6229E03B68DB6804333B6224E03B6847
:10229000DB6808333B621FE03B68DB680C333B6262
:1022A0001AE03B689B68002B02D104233B6213E0D9
:1022B0003B689B68012B05D108233B627B68FA6968
:1022C0001A6109E008233B627B68FA695A6103E0FE
:1022D00000233B6200E000BFBB69FF2B01D87B6895
:1022E00001E07B6804337B61BB69FF2B02D87B6A0A
:1022F0009B0002E07B6A083B9B003B617B691A689C
:102300000F213B6901FA03F3DB431A40396A3B6949
:1023100001FA03F31A437B691A603B685B6803F0B8
:102320008053002B00F0B1804D4B9B694C4A43F029
:10233000010393614A4B9B6903F00103BB60BB68D7
:10234000484A7B6A9B08023352F82330FB607B6A61
:1023500003F003039B000F2202FA03F3DB43FA6846
:102360001340FB607B68404A934213D07B683F4A2E
:1023700093420DD07B683E4A934207D07B683D4A2A
:10238000934201D1032306E0042304E0022302E088
:10239000012300E000237A6A02F0030292009340D6
:1023A000FA681343FB602F497B6A9B080233FA6883
:1023B00041F823203B685B6803F48013002B06D0B0
:1023C0002D4B9A682C49BB6913438B6006E02A4B5E
:1023D0009A68BB69DB43284913408B603B685B68A4
:1023E00003F40013002B06D0234BDA682249BB69A3
:1023F0001343CB6006E0204BDA68BB69DB431E4920
:102400001340CB603B685B6803F40033002B06D0BD
:10241000194B5A681849BB6913434B6006E0164BC9
:102420005A68BB69DB43144913404B603B685B68E7
:1024300003F48033002B21D00F4B1A680E49BB697F
:1024400013430B6021E000BF000032100000311088
:1024500000002210000021100000121000001110D6
:10246000001002400000014000080140000C014043
:102470000010014000140140000401400B4B1A6899
:10248000BB69DB43094913400B607B6A01337B6204
:102490003B681A687B6A22FA03F3002B7FF48EAE46
:1024A00000BF00BF2C37BD4680BC70470004014010
:1024B00080B485B000AF78600B467B807B689A68FB
:1024C0007B881340002B02D00123FB7301E0002323
:1024D000FB73FB7B18461437BD4680BC704780B445
:1024E00083B000AF78600B467B8013467B707B78AF
:1024F000002B03D07A887B681A6103E07B881A047A
:102500007B681A6100BF0C37BD4680BC704780B441
:1025100085B000AF78600B467B807B68DB68FB6032
:102520007A88FB6813401A04FB68D9437B880B4008
:102530001A437B681A6100BF1437BD4680BC7047E0
:1025400080B586B000AF78607B68002B01D1012395
:1025500072E27B681B6803F00103002B00F08780A8
:10256000924B5B6803F00C03042B0CD08F4B5B6821
:1025700003F00C03082B12D18C4B5B6803F48033FF
:10258000B3F5803F0BD1894B1B6803F40033002B5C
:102590006CD07B685B68002B68D101234CE27B68C0
:1025A0005B68B3F5803F06D1804B1B687F4A43F4DC
:1025B000803313602EE07B685B68002B0CD17B4B73
:1025C0001B687A4A23F480331360784B1B68774A80
:1025D00023F4802313601DE07B685B68B3F5A02FB4
:1025E0000CD1724B1B68714A43F4802313606F4B0C
:1025F0001B686E4A43F4803313600BE06B4B1B681F
:102600006A4A23F480331360684B1B68674A23F4DB
:10261000802313607B685B68002B13D0FFF762F99F
:10262000386108E0FFF75EF902463B69D31A642B74
:1026300001D9032300E25D4B1B6803F40033002B38
:10264000F0D014E0FFF74EF9386108E0FFF74AF9DF
:1026500002463B69D31A642B01D90323ECE1534BA7
:102660001B6803F40033002BF0D100E000BF7B684F
:102670001B6803F00203002B63D04C4B5B6803F034
:102680000C03002B0BD0494B5B6803F00C03082BA9
:102690001CD1464B5B6803F48033002B16D1434BAF
:1026A0001B6803F00203002B05D07B681B69012B1C
:1026B00001D00123C0E13D4B1B6823F0F8027B6889
:1026C0005B69DB00394913430B603AE07B681B69A7
:1026D000002B20D0364B01221A60FFF703F9386136
:1026E00008E0FFF7FFF802463B69D31A022B01D935
:1026F0000323A1E12D4B1B6803F00203002BF0D054
:102700002A4B1B6823F0F8027B685B69DB002749D2
:1027100013430B6015E0264B00221A60FFF7E2F826
:10272000386108E0FFF7DEF802463B69D31A022B56
:1027300001D9032380E11D4B1B6803F00203002B2A
:10274000F0D17B681B6803F00803002B3AD07B684C
:102750009B69002B19D0174B01221A60FFF7C2F8B2
:10276000386108E0FFF7BEF802463B69D31A022B36
:1027700001D9032360E10D4B5B6A03F00203002BD8
:10278000F0D0012000F0CEFA1CE00A4B00221A60C3
:10279000FFF7A8F838610FE0FFF7A4F802463B699D
:1027A000D31A022B08D9032346E100BF00100240D0
:1027B0000000424280044242924B5B6A03F00203F3
:1027C000002BE9D17B681B6803F00403002B00F0A9
:1027D000A6800023FB758B4BDB6903F08053002B35
:1027E0000DD1884BDB69874A43F08053D361854B19
:1027F000DB6903F08053BB60BB680123FB75824B30
:102800001B6803F48073002B18D17F4B1B687E4A32
:1028100043F480731360FFF765F8386108E0FFF751
:1028200061F802463B69D31A642B01D9032303E103
:10283000754B1B6803F48073002BF0D07B68DB685A
:10284000012B06D16F4B1B6A6E4A43F001031362E2
:102850002DE07B68DB68002B0CD16A4B1B6A694A50
:1028600023F001031362674B1B6A664A23F00403DB
:1028700013621CE07B68DB68052B0CD1614B1B6A83
:10288000604A43F0040313625E4B1B6A5D4A43F0E7
:10289000010313620BE05B4B1B6A5A4A23F00103EE
:1028A0001362584B1B6A574A23F0040313627B6878
:1028B000DB68002B15D0FFF715F838610AE0FFF749
:1028C00011F802463B69D31A41F28832934201D98A
:1028D0000323B1E04B4B1B6A03F00203002BEED045
:1028E00014E0FEF7FFFF38610AE0FEF7FBFF024647
:1028F0003B69D31A41F28832934201D903239BE00A
:10290000404B1B6A03F00203002BEED1FB7D012B31
:1029100005D13C4BDB693B4A23F08053D3617B6894
:10292000DB69002B00F08780364B5B6803F00C03FB
:10293000082B61D07B68DB69022B46D1334B002228
:102940001A60FEF7CFFF386108E0FEF7CBFF0246C2
:102950003B69D31A022B01D903236DE0294B1B6875
:1029600003F00073002BF0D17B681B6AB3F5803F46
:1029700008D1244B5B6823F400327B689B682149B3
:1029800013434B601F4B5B6823F474127B68196A16
:102990007B685B6A0B431B4913434B601B4B012253
:1029A0001A60FEF79FFF386108E0FEF79BFF0246C2
:1029B0003B69D31A022B01D903233DE0114B1B685D
:1029C00003F00073002BF0D035E0104B00221A60AA
:1029D000FEF788FF386108E0FEF784FF02463B6996
:1029E000D31A022B01D9032326E0064B1B6803F000
:1029F0000073002BF0D11EE07B68DB69012B07D14F
:102A0000012319E0001002400070004060004242C3
:102A10000B4B5B68FB60FB6803F480327B681B6ACE
:102A20009A4206D1FB6803F470127B685B6A9A4293
:102A300001D0012300E0002318461837BD4680BDB1
:102A40000010024080B584B000AF786039607B68C8
:102A5000002B01D10123D0E06A4B1B6803F0070370
:102A60003A689A4210D9674B1B6823F00702654900
:102A70003B6813430B60634B1B6803F007033A6822
:102A80009A4201D00123B8E07B681B6803F002037F
:102A9000002B20D07B681B6803F00403002B05D0BB
:102AA000594B5B68584A43F4E06353607B681B688A
:102AB00003F00803002B05D0534B5B68524A43F4E4
:102AC00060535360504B5B6823F0F0027B689B6857
:102AD0004D4913434B607B681B6803F00103002BD7
:102AE00040D07B685B68012B07D1474B1B6803F420
:102AF0000033002B15D101237FE07B685B68022B3C
:102B000007D1414B1B6803F00073002B09D101234F
:102B100073E03D4B1B6803F00203002B01D101233E
:102B20006BE0394B5B6823F003027B685B683649D6
:102B300013434B60FEF7D6FEF8600AE0FEF7D2FEC4
:102B40000246FB68D31A41F28832934201D903232B
:102B500053E02D4B5B6803F00C027B685B689B00C5
:102B60009A42EBD1274B1B6803F007033A689A425D
:102B700010D2244B1B6823F0070222493B68134301
:102B80000B60204B1B6803F007033A689A4201D0A0
:102B9000012332E07B681B6803F00403002B08D09C
:102BA000194B5B6823F4E0627B68DB6816491343CA
:102BB0004B607B681B6803F00803002B09D0124BA5
:102BC0005B6823F460527B681B69DB000E4913438A
:102BD0004B6000F021F802460B4B5B681B0903F0C9
:102BE0000F030A49CB5C22FA03F3094A1360094B2D
:102BF0001B681846FEF734FE002318461037BD4602
:102C000080BD00BF00200240001002406843000861
:102C1000000000200400002080B487B000AF002333
:102C2000FB600023BB6000237B6100237B600023EB
:102C30003B611E4B5B68FB60FB6803F00C03042BDD
:102C400002D0082B03D027E0194B3B6127E0FB683B
:102C50009B0C03F00F03174AD35C7B60FB6803F403
:102C60008033002B10D0114B5B685B0C03F0010329
:102C7000114AD35CBB607B680D4A03FB02F2BB6860
:102C8000B2FBF3F37B6104E07B680C4A02FB03F3C5
:102C90007B617B693B6102E0054B3B6100BF3B69A7
:102CA00018461C37BD4680BC704700BF001002406C
:102CB00000127A00804300089043000800093D009C
:102CC00080B400AF024B1B681846BD4680BC7047FD
:102CD0000000002080B500AFFFF7F2FF0246054B71
:102CE0005B681B0A03F007030349CB5C22FA03F37A
:102CF000184680BD001002407843000880B500AF40
:102D0000FFF7DEFF0246054B5B68DB0A03F00703B3
:102D10000349CB5C22FA03F3184680BD0010024041
:102D20007843000880B485B000AF78600A4B1B6818
:102D30000A4AA2FB03235B0A7A6802FB03F3FB60E7
:102D400000BFFB685A1EFA60002BF9D100BF00BF1C
:102D50001437BD4680BC704700000020D34D621080
:102D600080B586B000AF786000233B610023FB6034
:102D70007B681B6803F00103002B7DD00023FB75EB
:102D80004F4BDB6903F08053002B0DD14C4BDB69BB
:102D90004B4A43F08053D361494BDB6903F08053C6
:102DA000BB60BB680123FB75464B1B6803F4807353
:102DB000002B18D1434B1B68424A43F480731360C5
:102DC000FEF790FD386108E0FEF78CFD02463B6996
:102DD000D31A642B01D903236DE03A4B1B6803F42B
:102DE0008073002BF0D0364B1B6A03F44073FB60FA
:102DF000FB68002B2ED07B685B6803F44073FA6895
:102E00009A4227D02E4B1B6A23F44073FB602E4B53
:102E100001221A602C4B00221A60294AFB681362B7
:102E2000FB6803F00103002B14D0FEF75BFD386153
:102E30000AE0FEF757FD02463B69D31A41F2883299
:102E4000934201D9032336E01D4B1B6A03F00203B2
:102E5000002BEED01A4B1B6A23F440727B685B6830
:102E6000174913430B62FB7D012B05D1144BDB6922
:102E7000134A23F08053D3617B681B6803F002037D
:102E8000002B08D00E4B5B6823F440427B689B68A4
:102E90000B4913434B607B681B6803F01003002B46
:102EA00008D0074B5B6823F480027B68DB68044929
:102EB00013434B60002318461837BD4680BD00BF42
:102EC00000100240007000404004424280B582B0D1
:102ED00000AF78607B68002B01D1012341E07B6863
:102EE00093F83D30DBB2002B06D17B68002283F8DB
:102EF0003C207868FEF798FB7B68022283F83D202F
:102F00007B681A687B6804331946104600F020FA83
:102F10007B68012283F846207B68012283F83E20EB
:102F20007B68012283F83F207B68012283F84020E0
:102F30007B68012283F841207B68012283F84220CC
:102F40007B68012283F843207B68012283F84420B8
:102F50007B68012283F845207B68012283F83D20AD
:102F6000002318460837BD4680BD80B582B000AF4B
:102F700078607B681B681B6903F00203022B22D177
:102F80007B681B68DB6803F00203022B1BD17B68A4
:102F90001B686FF002021A617B6801221A777B6856
:102FA0001B689B6903F00303002B03D0786800F0D3
:102FB000B4F905E0786800F0A7F9786800F0B6F990
:102FC0007B6800221A777B681B681B6903F0040387
:102FD000042B22D17B681B68DB6803F00403042BFD
:102FE0001BD17B681B686FF004021A617B680222A8
:102FF0001A777B681B689B6903F44073002B03D02E
:10300000786800F08AF905E0786800F07DF9786862
:1030100000F08CF97B6800221A777B681B681B69BB
:1030200003F00803082B22D17B681B68DB6803F0E0
:103030000803082B1BD17B681B686FF008021A611C
:103040007B6804221A777B681B68DB6903F0030343
:10305000002B03D0786800F060F905E0786800F094
:1030600053F9786800F062F97B6800221A777B6870
:103070001B681B6903F01003102B22D17B681B68AF
:10308000DB6803F01003102B1BD17B681B686FF00B
:1030900010021A617B6808221A777B681B68DB695B
:1030A00003F44073002B03D0786800F036F905E094
:1030B000786800F029F9786800F038F97B68002218
:1030C0001A777B681B681B6903F00103012B0ED183
:1030D0007B681B68DB6803F00103012B07D17B6869
:1030E0001B686FF001021A617868FEF729FA7B68A5
:1030F0001B681B6903F08003802B0ED17B681B6863
:10310000DB6803F08003802B07D17B681B686FF0BE
:1031100080021A61786800F07AFA7B681B681B6984
:1031200003F04003402B0ED17B681B68DB6803F083
:103130004003402B07D17B681B686FF040021A6187
:10314000786800F0FCF87B681B681B6903F02003BB
:10315000202B0ED17B681B68DB6803F02003202B3B
:1031600007D17B681B686FF020021A61786800F055
:1031700045FA00BF0837BD4680BD80B584B000AFBA
:10318000786039600023FB737B6893F83C30012B37
:1031900001D10223B4E07B68012283F83C207B68E4
:1031A000022283F83D207B681B689B68BB60BB687C
:1031B00023F07703BB60BB6823F47F43BB607B686D
:1031C0001B68BA689A603B681B68B3F5005F3ED025
:1031D000B3F5005F00F28780B3F5805F00F0868072
:1031E000B3F5805F7FD8702B1AD0702B7BD8602B03
:1031F00050D0602B77D8502B3CD0502B73D8402B1D
:1032000058D0402B6FD8302B64D0302B6BD8202B6C
:1032100060D0202B67D8002B5CD0102B5AD062E0F6
:103220007B6818683B6899683B685A683B68DB684C
:1032300000F067F97B681B689B68BB60BB6843F064
:103240007703BB607B681B68BA689A604FE07B6855
:1032500018683B6899683B685A683B68DB6800F00F
:1032600050F97B681B689A687B681B6842F480424F
:103270009A603CE07B6818683B6859683B68DB688B
:103280001A4600F0C7F87B681B685021184600F00A
:103290001EF92CE07B6818683B6859683B68DB685E
:1032A0001A4600F0E5F87B681B686021184600F0BC
:1032B0000EF91CE07B6818683B6859683B68DB685E
:1032C0001A4600F0A7F87B681B684021184600F0FA
:1032D000FEF80CE07B681A683B681B6819461046CC
:1032E00000F0F5F803E00123FB7300E000BF7B680A
:1032F000012283F83D207B68002283F83C20FB7B81
:1033000018461037BD4680BD80B483B000AF7860EA
:1033100000BF0C37BD4680BC704780B483B000AF9F
:10332000786000BF0C37BD4680BC704780B483B066
:1033300000AF786000BF0C37BD4680BC704780B4DA
:1033400083B000AF786000BF0C37BD4680BC7047CB
:1033500080B485B000AF786039607B681B68FB6023
:103360007B68294A93420BD07B68B3F1804F07D02A
:103370007B68264A934203D07B68254A934208D152
:10338000FB6823F07003FB603B685B68FA681343DB
:10339000FB607B681C4A93420BD07B68B3F1804F83
:1033A00007D07B68194A934203D07B68184A93423E
:1033B00008D1FB6823F44073FB603B68DB68FA6864
:1033C0001343FB60FB6823F080023B685B69134397
:1033D000FB607B68FA681A603B689A687B68DA620F
:1033E0003B681A687B689A627B68074A934203D1FC
:1033F0003B681A697B681A637B6801225A6100BFC7
:103400001437BD4680BC7047002C014000040040CA
:103410000008004080B487B000AFF860B9607A60FF
:10342000FB681B6A7B61FB681B6A23F00102FB6877
:103430001A62FB689B693B613B6923F0F0033B61C7
:103440007B681B013A6913433B617B6923F00A03E4
:103450007B617A69BB6813437B61FB683A699A6157
:10346000FB687A691A6200BF1C37BD4680BC704792
:1034700080B487B000AFF860B9607A60FB681B6AFF
:103480007B61FB681B6A23F01002FB681A62FB6811
:103490009B693B613B6923F470433B617B681B0381
:1034A0003A6913433B617B6923F0A0037B61BB68EE
:1034B0001B017A6913437B61FB683A699A61FB6877
:1034C0007A691A6200BF1C37BD4680BC704780B461
:1034D00085B000AF786039607B689B68FB60FB68F3
:1034E00023F07003FB603A68FB68134343F0070363
:1034F000FB607B68FA689A6000BF1437BD4680BCE9
:10350000704780B487B000AFF860B9607A603B6004
:10351000FB689B687B617B6923F47F437B613B682D
:103520001A027B681A43BB6813437A6913437B61B1
:10353000FB687A699A6000BF1C37BD4680BC704743
:1035400080B485B000AF786039607B6893F83C3018
:10355000012B01D1022346E07B68012283F83C2045
:103560007B68022283F83D207B681B685B68FB60F8
:103570007B681B689B68BB60FB6823F07003FB6083
:103580003B681B68FA681343FB607B681B68FA683A
:103590005A607B681B68164A93420ED07B681B6892
:1035A000B3F1804F09D07B681B68124A934204D064
:1035B0007B681B68104A93420CD1BB6823F08003E0
:1035C000BB603B685B68BA681343BB607B681B6881
:1035D000BA689A607B68012283F83D207B680022EC
:1035E00083F83C20002318461437BD4680BC704742
:1035F000002C0140000400400008004080B483B06B
:1036000000AF786000BF0C37BD4680BC704780B407
:1036100083B000AF786000BF0C37BD4680BC7047F8
:1036200080B582B000AF78607B68002B01D10123A8
:1036300042E07B6893F84130DBB2002B06D17B6817
:10364000002283F840207868FEF714F87B68242273
:1036500083F841207B681B68DA687B681B6822F46A
:103660000052DA60786800F01DF97B681B681A69FF
:103670007B681B6822F490421A617B681B685A6958
:103680007B681B6822F02A025A617B681B68DA6833
:103690007B681B6842F40052DA607B6800225A643F
:1036A0007B68202283F841207B68202283F8422017
:1036B0007B6800225A63002318460837BD4680BD48
:1036C00080B58AB002AFF860B9603B601346FB80FA
:1036D00000237B61FB6893F84130DBB2202B6DD176
:1036E000BB68002B02D0FB88002B01D1012366E0D0
:1036F000FB6800225A64FB68212283F84120FEF710
:10370000F1F87861FB68FA889A84FB68FA88DA84B1
:10371000FB689B68B3F5805F08D1FB681B69002BD1
:1037200004D10023FB61BB68BB6103E0BB68FB61A4
:103730000023BB612AE03B6800937B690022802163
:10374000F86800F040F80346002B01D0032336E070
:10375000FB69002B0BD1BB691B881A46FB681B68F1
:10376000C2F308025A60BB690233BB6107E0FB6920
:103770001A78FB681B685A60FB690133FB61FB68C0
:10378000DB8C9BB2013B9AB2FB68DA84FB68DB8C72
:103790009BB2002BCFD13B6800937B690022402174
:1037A000F86800F010F80346002B01D0032306E070
:1037B000FB68202283F84120002300E00223184602
:1037C0002037BD4680BD80B590B000AFF860B960CD
:1037D0003B601346FB7150E0BB6CB3F1FF3F4CD034
:1037E000BB6C002B07D0FEF77DF802463B68D31A6E
:1037F000BA6C9A4241D2FB681B680C33BB62BB6A4D
:1038000053E8003F7B627B6A23F4D073FB63FB6861
:103810001B680C33FA6B7A633B63396B7A6B41E854
:103820000023FB62FB6A002BE5D1FB681B681433A5
:103830007B617B6953E8003F3B613B6923F00103F7
:10384000BB63FB681B681433BA6B3A62FB61F969AE
:103850003A6A41E80023BB61BB69002BE5D1FB68F4
:10386000202283F84120FB68202283F84220FB6855
:10387000002283F8402003230FE0FB681B681A68CE
:10388000BB681340BA689A420CBF01230023DBB225
:103890001A46FB799A429FD0002318464037BD460E
:1038A00080BD000080B584B000AF78607B681B6885
:1038B0001B6923F440517B68DA687B681B680A4304
:1038C0001A617B689A687B681B691A437B685B692D
:1038D0001343BB607B681B68DB6823F4B05323F0A1
:1038E0000C037A681268B9680B43D3607B681B6865
:1038F0005B6923F440717B689A697B681B680A43A3
:103900005A617B681B682C4A934203D1FFF7F6F992
:10391000F86002E0FFF7DEF9F860FA6813469B00F2
:1039200013449A001A447B685B689B00B2FBF3F374
:10393000224AA2FB03235B091901FA6813469B0084
:1039400013449A001A447B685B689B00B2FBF3F255
:103950001A4BA3FB02035B09642000FB03F3D31A99
:103960001B013233154AA2FB03235B0903F0F0036A
:103970001944FA6813469B0013449A001A447B6862
:103980005B689B00B2FBF3F20C4BA3FB02035B09E9
:10399000642000FB03F3D31A1B013233074AA2FB56
:1039A00003235B0903F00F027B681B680A449A60DB
:1039B00000BF1037BD4680BD003801401F85EB5168
:1039C0000EB46FF0004100B59CB01DAB02900690A4
:1039D000079104910848094953F8042B05910068A0
:1039E00002A9019300F08EF90022029B1A701CB00C
:1039F0005DF804EB03B07047580000200802FFFF99
:103A000003460244934200D1704703F8011BF9E7D3
:103A1000014B1868704700BF5800002070B50026A1
:103A20000C4D0D4C641BA410A64209D100F07AFC89
:103A300000260A4D0A4C641BA410A64205D170BD95
:103A400055F8043B98470136EEE755F8043B984794
:103A50000136F2E7C8430008C8430008C84300081D
:103A6000CC4300087047704738B50546002940D060
:103A700051F8043C0C1F002BB8BFE41800F0DCF830
:103A80001C4A136833B9636014602846BDE83840A7
:103A900000F0D8B8A34208D9206821188B4201BF92
:103AA00019685B6809182160EDE71A465B680BB17D
:103AB000A342FAD911685018A0420BD120680144E2
:103AC000501883421160E0D118685B6808441060A8
:103AD0005360DAE702D90C232B60D6E7206821185F
:103AE0008B4201BF19685B680918216063605460EC
:103AF000CBE738BDA805002070B50E4E0C463168E6
:103B0000054611B900F0AAFB30602146284600F0B6
:103B1000A5FB431C0AD0C41C24F00304A04207D018
:103B2000211A284600F09AFB013001D14FF0FF34F2
:103B3000204670BDAC0500202DE9F843CD1C25F0D2
:103B4000030508350C2D38BF0C25002D074601DB79
:103B5000A94205D90C2300263B603046BDE8F88316
:103B6000DFF8D08000F068F8D8F800301C465CBB65
:103B700029463846FFF7C0FF431C044655D1D8F804
:103B800000402646002E45D1002C48D023683146FF
:103B9000384604EB030900F061FB81453FD1216801
:103BA00038466D1A2946FFF7A7FF013037D0236842
:103BB0002B442360D8F80030002B38D05A68A2423A
:103BC0002BD100225A600FE02268521B1FD40B2A0F
:103BD00017D96119A342256018BF5960636808BFEF
:103BE000C8F8001062514B60384604F10B0600F033
:103BF00029F826F00706231DF21AAED09B1BA3500E
:103C0000ABE7A3426268DDD1C8F80020ECE72346A9
:103C10006468ACE734467668B4E71346CCE70C2317
:103C200038463B6000F00EF897E72560DCE75B6004
:103C3000FFDE00BFA80500200148FFF713BF00BF4B
:103C4000A40500200148FFF70EBF00BFA405002017
:103C50002DE9F0471F468E688246BE420C469046CC
:103C60000B682CD88A8912F4906F26D0656909698F
:103C700005EB4505A3EB010905EBD5757B1C4B4412
:103C80006D109D4238BF1D46530527D52946FFF7C5
:103C900053FF064660B34A46216900F0FDFAA38946
:103CA00023F4906343F08003A38126614E44266091
:103CB0003E466561A5EB0905A560BE4200D93E46BA
:103CC00032464146206800F0AFFA0020A3689B1BF3
:103CD000A360236833442360BDE8F0872A4600F0E0
:103CE000E9FA06460028E0D150462169FFF7BCFEFC
:103CF0000C23CAF80030A3894FF0FF3043F0400393
:103D0000A381E9E72DE9F04F98468B8907461B060A
:103D10000D4614469DB00ED50B6963B94021FFF7DF
:103D20000BFF2860286120B90C233B604FF0FF3067
:103D3000D0E040236B610023099320238DF82930C4
:103D400030234FF00109CDF80C80DFF8A0818DF809
:103D50002A3023469A4613F8012B0AB1252AF9D1B5
:103D6000BAEB040B0BD05B46224629463846FFF7D8
:103D70006FFF013000F0A980099A5A4409929AF81D
:103D80000030002B00F0A18000234FF0FF32CDE97E
:103D900005230AF1010A049307938DF853301A930F
:103DA0005446052214F8011B504800F067FA049AA3
:103DB000D8B9D00644BF20238DF85330110744BF33
:103DC0002B238DF853309AF800302A2B15D0544607
:103DD00000204FF00A0C079A214611F8013B303BB6
:103DE000092B4DD9B0B1079214E0A0EB080309FAF2
:103DF00003F31343A2460493D2E7039B191D1B68E8
:103E00000391002BBBBF5B4242F002020793079372
:103E1000B8BF049223782E2B0CD163782A2B34D18F
:103E2000039B02341A1D1B680392002BB8BF4FF08E
:103E3000FF330593DFF8B8A003225046217800F045
:103E40001DFA38B14022049BA0EB0A0082401343C4
:103E50000134049314F8011B062226488DF828101B
:103E600000F00CFA002838D0234B1BBB039B073310
:103E700023F0070308330393099B3344099368E74E
:103E80000C4601200CFB0232A6E700234FF00A0C7F
:103E9000194601340593204610F8012B303A092ABF
:103EA00003D9002BC6D00591C4E7044601230CFBBF
:103EB0000121F0E703AB00932A4638460F4B04A9D3
:103EC000AFF30080421C0646D6D1AB895B063FF5B6
:103ED0002DAF09981DB0BDE8F08F03AB00932A46C3
:103EE0003846064B04A900F07DF8EBE79243000842
:103EF000984300089C43000800000000513C000863
:103F00002DE9F047164699468A680B6907469342A1
:103F1000B8BF1346336091F843200C46DDF820808B
:103F20000AB1013333602368990642BF3368023314
:103F30003360256815F0060506D104F1190AE36817
:103F400032689B1AAB422BDC94F84320131E226884
:103F500018BF0123920630D44946384604F1430283
:103F6000C047013023D02368226903F00603042BE5
:103F700014BF002533684FF0000608BFE56804F160
:103F80001A0408BFED1A54F8123C08BF25EAE5757B
:103F90009342C4BF9B1AED18B5421AD1002008E025
:103FA0000123524649463846C047013003D14FF0FD
:103FB000FF30BDE8F0870135C1E73020E11881F816
:103FC00043005A1C94F845102244023382F84310EF
:103FD000C2E70123224649463846C0470130E6D0B1
:103FE0000136D9E72DE9FF470F7E9146782F8046AD
:103FF0000C469A460C9D01F1430207D8622F0AD85D
:10400000002F00F0D580582F00F0C18004F1420548
:1040100084F842703AE0A7F16303152BF6D801A1AA
:1040200051F823F07D400008914000080D40000841
:104030000D4000080D4000080D40000891400008A8
:104040000D4000080D4000080D4000080D4000081C
:1040500097410008BD400008514100080D4000088C
:104060000D400008B94100080D400008BD4000089F
:104070000D4000080D400008594100082B681A1D2A
:104080001B682A6004F1420584F842300123A0E055
:1040900020682B68070603F10401296001D51E681A
:1040A00003E04606FBD5B3F90060002E03DA2D23AA
:1040B000764284F843300A23594812E02B6820687E
:1040C000191D2960050601D51E6802E04106FBD5D1
:1040D0001E886F2F0CBF08230A235148002184F843
:1040E00043106568002DA8BF2168A560A4BF21F01A
:1040F000040121600EB9002D4BD01546B6FBF3F13B
:1041000003FB1167C75D05F8017D3746BB420E46CC
:10411000F4D9082B0BD12368DE0708D52369616821
:104120009942DEBF302305F8013C05F1FF35521BF3
:1041300022614B4621464046CDF800A003AAFFF776
:10414000DFFE01304AD14FF0FF3004B0BDE8F08708
:10415000236843F0200323607827324884F84570B1
:10416000236829681F0651F8046B02D45F0648BF14
:10417000B6B2DF0748BF43F02003296048BF236081
:104180001EB9236823F0200323601023A6E72448E8
:10419000E4E71546BDE72B682668181D61692860AD
:1041A00035061B6801D5196002E07006FBD5198041
:1041B000002315462361BCE72B6800211A1D2A60E5
:1041C0001D686268284600F059F808B1401B60601D
:1041D00063682361002384F84330AAE72A464946EE
:1041E00040462369D0470130ADD023689B0713D4E4
:1041F000E068039B9842B8BF1846A6E70123324601
:1042000049464046D04701309DD00135E3680399C7
:104210005B1AAB42F2DCEBE7002504F11906F5E787
:10422000A3430008B4430008884210B501EB020420
:1042300002D98442234607D8431EA14208D011F870
:10424000012B03F8012FF8E7014602448A4200D10E
:1042500010BD13F8014D02F8014DF7E738B5002302
:10426000054D044608462B60FDF782FA431C02D137
:104270002B6803B1236038BDA0050020034610B5AC
:10428000C9B202449342184601D1002003E00478E9
:1042900001338C42F6D110BD0A44914200F1FF3344
:1042A00000D1704710B511F8014B914203F8014F4E
:1042B000F9D110BD2DE9F041804614460E4621B9D2
:1042C0001146BDE8F041FFF737BC2AB9FFF7CCFB38
:1042D00025462846BDE8F08100F01BF884420746D9
:1042E00002D8B4EB500F12D821464046FFF724FC09
:1042F00005460028EDD0BC422246314628BF3A464A
:10430000FFF7CAFF31464046FFF7AEFBE1E735460F
:10431000DFE751F8043C181F002BBCBF0B58C01836
:1043200070470000F8B500BFF8BC08BC9E46704757
:0C433000F8B500BFF8BC08BC9E46704702
:10433C00256C6400676961207472692041444320D4
:10434C006C613A00000000000A0A0A0A0000000032
:10435C000000000000000000000000000000000051
:10436C000000000001020304060708090000000019
:10437C000102030402030405060708090A0B0C0DCD
:10438C000E0F10100102232D302B2000686C4C00F6
:10439C006566674546470030313233343536373839
:1043AC003941424344454600303132333435363797
:0C43BC003839616263646566000000002F
:0443C80035010008B3
:0443CC0011010008D3
:1043D0000024F400100000000100000000000000B4
:1043E00068040020D00400203805002000000000F0
:1043F00000000000000000000000000000000000BD
:1044000000000000000000000000000000000000AC
:10441000000000000000000000000000000000009C
:0C44200000000000000000000C00002064
:04000005080017E9EF
:00000001FF
